:020000040800F2
:1000000000800120B52C0008EB0A0008F90A00085E
:10001000FF0A0008050B00080B0B00080000000099
:10002000000000000000000000000000110B0008AC
:100030001F0B0008000000002D0B00083B0B000800
:10004000FD2C0008FD2C0008FD2C0008FD2C0008EC
:10005000FD2C0008FD2C0008890B0008FD2C000871
:10006000FD2C0008FD2C0008FD2C0008FD2C0008CC
:10007000FD2C0008FD2C0008FD2C0008FD2C0008BC
:10008000FD2C0008FD2C0008FD2C0008FD2C0008AC
:10009000FD2C0008FD2C0008FD2C0008FD2C00089C
:1000A000FD2C0008FD2C0008FD2C0008FD2C00088C
:1000B000FD2C0008FD2C0008FD2C0008FD2C00087C
:1000C000FD2C0008FD2C0008FD2C0008FD2C00086C
:1000D000FD2C0008FD2C0008FD2C0008FD2C00085C
:1000E000FD2C0008FD2C0008FD2C0008FD2C00084C
:1000F000FD2C0008FD2C0008FD2C0008FD2C00083C
:10010000FD2C0008FD2C0008FD2C0008FD2C00082B
:10011000FD2C0008FD2C0008FD2C0008FD2C00081B
:10012000FD2C0008FD2C0008FD2C0008FD2C00080B
:10013000FD2C0008FD2C0008FD2C0008FD2C0008FB
:1001400000000000000000000000000000000000AF
:10015000FD2C0008FD2C0008FD2C0008FD2C0008DB
:10016000FD2C0008FD2C0008FD2C0008FD2C0008CB
:10017000FD2C0008FD2C0008FD2C0008FD2C0008BB
:04018000FD2C00084A
:1001900010B5054C237833B9044B13B10448AFF3C1
:1001A00000800123237010BDB00400200000000077
:1001B0003C46000808B5034B1BB103490348AFF3A5
:1001C000008008BD00000000B40400203C46000888
:1001D00081F0004102E000BF83F0004330B54FEAF8
:1001E00041044FEA430594EA050F08BF90EA020F65
:1001F0001FBF54EA000C55EA020C7FEA645C7FEAF8
:10020000655C00F0E2804FEA5454D4EB5555B8BF1A
:100210006D420CDD2C4480EA020281EA030382EA8B
:10022000000083EA010180EA020281EA0303362D1D
:1002300088BF30BD11F0004F4FEA01314FF4801CF0
:100240004CEA113102D0404261EB410113F0004F02
:100250004FEA03334CEA133302D0524263EB4303B9
:1002600094EA050F00F0A780A4F10104D5F1200E57
:100270000DDB02FA0EFC22FA05F2801841F10001B2
:1002800003FA0EF2801843FA05F359410EE0A5F186
:1002900020050EF1200E012A03FA0EFC28BF4CF0B7
:1002A000020C43FA05F3C01851EBE37101F000456D
:1002B00007D54FF0000EDCF1000C7EEB00006EEB7A
:1002C0000101B1F5801F1BD3B1F5001F0CD3490804
:1002D0005FEA30004FEA3C0C04F101044FEA44525B
:1002E00012F5800F80F09A80BCF1004F08BF5FEAE2
:1002F000500C50F1000041EB045141EA050130BDC2
:100300005FEA4C0C404141EB0101013C28BFB1F5D3
:10031000801FE9D291F0000F04BF01460020B1FA1E
:1003200081F308BF2033A3F10B03B3F120020CDAF1
:100330000C3208DD02F1140CC2F10C0201FA0CF0CF
:1003400021FA02F10CE002F11402D8BFC2F1200C34
:1003500001FA02F120FA0CFCDCBF41EA0C019040EA
:10036000E41AA2BF01EB0451294330BD6FEA040433
:100370001F3C1CDA0C340EDC04F11404C4F120021E
:1003800020FA04F001FA02F340EA030021FA04F330
:1003900045EA030130BDC4F10C04C4F1200220FA87
:1003A00002F001FA04F340EA0300294630BD21FAC5
:1003B00004F0294630BD94F0000F83F4801306BF8B
:1003C00081F480110134013D4EE77FEA645C18BF7F
:1003D0007FEA655C29D094EA050F08BF90EA020F16
:1003E00005D054EA000C04BF1946104630BD91EA0E
:1003F000030F1EBF0021002030BD5FEA545C05D111
:100400004000494128BF41F0004130BD14F580044F
:100410003CBF01F5801130BD01F0004545F0FE41C3
:1004200041F470014FF0000030BD7FEA645C1ABFF8
:10043000194610467FEA655C1CBF0B46024650EA2F
:10044000013406BF52EA033591EA030F41F400215B
:1004500030BD00BF90F0000F04BF0021704730B5E1
:100460004FF4806404F132044FF000054FF00001B6
:1004700050E700BF90F0000F04BF0021704730B577
:100480004FF4806404F1320410F0004548BF40424C
:100490004FF000013EE700BF42004FEAE2014FEAA1
:1004A00031014FEA02701FBF12F07F4393F07F4F7C
:1004B00081F06051704732F07F4208BF704793F07F
:1004C0007F4F04BF41F40021704730B54FF4607492
:1004D00001F0004521F000411CE700BF50EA010295
:1004E00008BF704730B54FF000050AE050EA01023E
:1004F00008BF704730B511F0004502D5404261EBAE
:1005000041014FF4806404F132045FEA915C3FF4EE
:10051000D8AE4FF003025FEADC0C18BF03325FEA8B
:10052000DC0C18BF033202EBDC02C2F1200300FA3C
:1005300003FC20FA02F001FA03FE40EA0E0021FA61
:1005400002F11444BDE600BF70B54FF0FF0C4CF44F
:10055000E06C1CEA11541DBF1CEA135594EA0C0F01
:1005600095EA0C0F00F0DEF82C4481EA030621EA3C
:100570004C5123EA4C5350EA013518BF52EA033577
:1005800041F4801143F4801338D0A0FB02CE4FF029
:100590000005E1FB02E506F00042E0FB03E54FF059
:1005A0000006E1FB03569CF0000F18BF4EF0010E51
:1005B000A4F1FF04B6F5007F64F5407404D25FEA4D
:1005C0004E0E6D4146EB060642EAC62141EA555100
:1005D0004FEAC52040EA5E504FEACE2EB4F1FD0C42
:1005E00088BFBCF5E06F1ED8BEF1004F08BF5FEAC0
:1005F000500E50F1000041EB045170BD06F0004672
:1006000046EA010140EA020081EA0301B4EB5C041E
:10061000C2BFD4EB0C0541EA045170BD41F4801116
:100620004FF0000E013C00F3AB8014F1360FDEBF3B
:10063000002001F0004170BDC4F10004203C35DA17
:100640000C341BDC04F11404C4F1200500FA05F39A
:1006500020FA04F001FA05F240EA020001F000423B
:1006600021F0004110EBD37021FA04F642EB0601B1
:100670005EEA430E08BF20EAD37070BDC4F10C04DB
:10068000C4F1200500FA04F320FA05F001FA04F29F
:1006900040EA020001F0004110EBD37041F100018B
:1006A0005EEA430E08BF20EAD37070BDC4F1200596
:1006B00000FA05F24EEA020E20FA04F301FA05F2FE
:1006C00043EA020321FA04F001F0004121FA04F2A6
:1006D00020EA020000EBD3705EEA430E08BF20EA76
:1006E000D37070BD94F0000F0FD101F000464000B0
:1006F00041EB010111F4801F08BF013CF7D041EA32
:10070000060195F0000F18BF704703F00046520035
:1007100043EB030313F4801F08BF013DF7D043EA06
:100720000603704794EA0C0F0CEA135518BF95EABC
:100730000C0F0CD050EA410618BF52EA4306D1D143
:1007400081EA030101F000414FF0000070BD50EA62
:10075000410606BF1046194652EA430619D094EAEC
:100760000C0F02D150EA013613D195EA0C0F05D1D6
:1007700052EA03361CBF104619460AD181EA03012A
:1007800001F0004141F0FE4141F470014FF00000E2
:1007900070BD41F0FE4141F4780170BD70B54FF07D
:1007A000FF0C4CF4E06C1CEA11541DBF1CEA1355FD
:1007B00094EA0C0F95EA0C0F00F0A7F8A4EB0504DF
:1007C00081EA030E52EA03354FEA013100F08880D6
:1007D0004FEA03334FF0805545EA131343EA12639F
:1007E0004FEA022245EA111545EA10654FEA002654
:1007F0000EF000419D4208BF964244F1FD0404F50D
:10080000407402D25B084FEA3202B61A65EB030568
:100810005B084FEA32024FF480104FF4002CB6EB25
:10082000020E75EB030E22BFB61A754640EA0C00A5
:100830005B084FEA3202B6EB020E75EB030E22BFE5
:10084000B61A754640EA5C005B084FEA3202B6EB26
:10085000020E75EB030E22BFB61A754640EA9C00E5
:100860005B084FEA3202B6EB020E75EB030E22BFB5
:10087000B61A754640EADC0055EA060E18D04FEA73
:10088000051545EA16754FEA06164FEAC30343EA13
:1008900052734FEAC2025FEA1C1CC0D111F4801FE0
:1008A0000BD141EA00014FF000004FF0004CB6E7D9
:1008B00011F4801F04BF01430020B4F1FD0C88BF78
:1008C000BCF5E06F3FF6AFAEB5EB030C04BFB6EB83
:1008D000020C5FEA500C50F1000041EB045170BD76
:1008E0000EF0004E4EEA113114EB5C04C2BFD4EBA3
:1008F0000C0541EA045170BD41F480114FF0000E27
:10090000013C90E645EA060E8DE60CEA135594EAA2
:100910000C0F08BF95EA0C0F3FF43BAF94EA0C0FA5
:100920000AD150EA01347FF434AF95EA0C0F7FF41A
:1009300025AF104619462CE795EA0C0F06D152EA6E
:1009400003353FF4FDAE1046194622E750EA410652
:1009500018BF52EA43067FF4C5AE50EA41047FF463
:100960000DAF52EA43057FF4EBAE12E74FEA4102C6
:1009700012F5001215D211D56FF47873B3EB6252F1
:1009800012D94FEAC12343F0004343EA505311F018
:10099000004F23FA02F018BF404270474FF00000AA
:1009A000704750EA013005D111F0004008BF6FF0E8
:1009B000004070474FF00000704700BF034613F837
:1009C000012B002AFBD1181A0138704700000000E3
:1009D00001F0FF01102A2BDB10F0070F08D010F8F0
:1009E000013B013A8B422DD010F0070F42B3F6D1F4
:1009F000F0B441EA012141EA014122F007047FF00D
:100A000000070023F0E80256083C85EA010586EA63
:100A1000010685FA47F5A3FA87F586FA47F6A5FA9F
:100A200087F68EB9EED1F0BC01F0FF0102F00702AB
:100A300032B110F8013B013A83EA010313B1F8D156
:100A40000020704701387047002D06BF3546033837
:100A5000073815F0010F07D1013015F4807F02BF70
:100A6000013015F4C03F0130F0BC0138704700BFC1
:100A700080B500AF01F0E8F80121012001F0E4F9B0
:100A800000BF01F03FF90346002BFAD001223B21C1
:100A9000022001F091FA002001F006FC0121022061
:100AA00001F0D2F900BF192001F004F90346012B2F
:100AB000F9D1002001F01CFA042001F045FA0420CD
:100AC00001F02CFA012001F0D3FB022001F0C2FA60
:100AD00000BF01F0D5FA0346022BFAD1002001F045
:100AE000C7FB02F051F900BF80BD80B400AF00BF6A
:100AF000BD465DF8047B704780B400AFFEE780B46C
:100B000000AFFEE780B400AFFEE780B400AFFEE7C1
:100B100080B400AF00BFBD465DF8047B704780B471
:100B200000AF00BFBD465DF8047B704780B400AFE6
:100B300000BFBD465DF8047B704780B400AF00BFC6
:100B4000BD465DF8047B704780B500AF052002F01C
:100B5000CBFA012001F0F8FC0121094801F0C8FDA1
:100B60000346012B0AD1074B1B78042B03D1054BFD
:100B700001221A7002E0034B04221A7000BF80BDEC
:100B8000000801400000002080B500AFFFF7DCFF47
:100B900000BF80BD80B584B000AF786001211448EB
:100BA00001F0D5F80121134801F0D1F807F108034D
:100BB000184601F083FD0823BB734FF40073BB603C
:100BC00007F1080319460C4801F0DCFC0023002261
:100BD00079680A4801F052FE0121084801F0D3FE6D
:100BE0000121064801F0BAFE00BF1037BD4680BDA6
:100BF0000E001800020018000008014000380140F3
:100C000080B586B000AF01214FF4A01001F09FF82D
:100C1000134801F05FFB3B1D184601F00BFC01235C
:100C2000FB810023BB810F4BBB600123FB740023BE
:100C30007B740D4B7B600123BB7400233B74022348
:100C40007B7501233B753B1D1946054801F01AFCD5
:100C50000121034801F094FB00BF1837BD4680BD59
:100C600008000240CE0400204C24014080B582B030
:100C700000AF0121254801F06AF8002001F07AF95F
:100C8000234800F0B5FD002000F002FE3B1D184691
:100C900000F014FE00233B7101237B710023BB7124
:100CA0000123FB713B1D1946194800F01DFE072367
:100CB00001221021164800F0A7FE01220721144846
:100CC00000F05EFF0121124800F043FE012000F019
:100CD0008FFF01210E4800F0C5FD0D4800F04EFECB
:100CE00000BF0B4800F059FE0346002BF9D108481D
:100CF00000F067FE00BF064800F072FE0346002BBE
:100D0000F9D100BF00BF0837BD4680BD09001800FB
:100D10000024014000000000B0B588B000AF0320FF
:100D200001F080FDFFF7A4FE02F006F9002002F0BA
:100D300097F9012002F094F9022002F091F94FF4A2
:100D4000E130FFF727FFFFF75BFFFFF78FFF464814
:100D500002F0E4FA0121454800F060FF4FF0000284
:100D60004FF00003C7E90623414B3C461D460FCD1B
:100D70000FC495E8030020600434218002340B0C7A
:100D800023703C4B3C4A1A603C4801F087F9394BD0
:100D90001B689B689847374B1B685B694FF6FF7071
:100DA0009847032002F0ECF9002002F035F9012009
:100DB00002F0E6F900BF022001F0F8FA0346002B2A
:100DC000F9D0022001F01AFB2D4B1B889BB218466C
:100DD000FFF740FB1EA3D3E90023FFF7B5FB024654
:100DE0000B46104619464FF00002264BFFF7D6FC83
:100DF00002460B4618A1D1E90001FFF7EDF90246C2
:100E00000B461046194616A3D3E90023FFF7C6FC8C
:100E100002460B46104619464FF000021A4BFFF7E8
:100E2000DDF902460B46C7E90623D7E90623174832
:100E300002F0EEF90F4B1B68DC69D7E90601FFF7FA
:100E400095FD034698B200231A220121A047ABE783
:100E50006666666666660A40295C8FC2F528F43FBE
:100E600033E197FA795371BF5446000800240140DA
:100E700098460008EC04002004040020D004002060
:100E8000CE0400200000B040000039407446000845
:100E900080B598B000AF07F1580300221A605A607D
:100EA0000121A64800F053FF0121A54800F04FFFA3
:100EB0000121A44800F04BFF0121A34800F047FFA7
:100EC0000121A24800F043FF01214FF4C01000F0BF
:100ED0003EFF01219E4800F03AFF01219D4801F0AC
:100EE00031FC3C23BB65082387F85E30002387F87C
:100EF0005C30042387F85D30012387F85F3007F109
:100F000058031946944801F03DFB4FF4A043BB65DC
:100F1000082387F85E30002387F85C30042387F8C5
:100F20005D30012387F85F3007F1580319468B487D
:100F300001F028FB4FF4C253BB65082387F85E30ED
:100F4000002387F85C30042387F85D30012387F89D
:100F50005F3007F158031946814801F013FB4FF445
:100F60007843BB65082387F85E30002387F85C3040
:100F7000042387F85D30012387F85F3007F15803B9
:100F80001946784801F0FEFA4FF4C063BB650823A8
:100F900087F85E30002387F85C30042387F85D30E3
:100FA000012387F85F3007F1580319466E4801F0B6
:100FB000E9FA0123BB65102387F85E30002387F828
:100FC0005C30042387F85D30012387F85F3007F138
:100FD00058031946614801F0D5FA0823BB65102370
:100FE00087F85E30002387F85C30042387F85D3093
:100FF000012387F85F3007F1580319465A4801F07A
:10100000C1FA2023BB65082387F85E30002387F8E8
:101010005C30042387F85D30012387F85F3007F1E7
:10102000580319464E4801F0ADFA40F68403BB65FB
:10103000082387F85E30002387F85C30042387F8A4
:101040005D30012387F85F3007F1580319464648A1
:1010500001F098FA07F14003184601F070FD0023F3
:1010600087F84030002387F84130002387F842306A
:10107000102387F843300023A7F844300023A7F853
:1010800046300023A7F848300023A7F84A30002351
:10109000A7F84C304FF48053A7F84E300023A7F840
:1010A00050304FF48043A7F8523000237B6507F19E
:1010B0004003184601F0A1FC3A4607F1200311460F
:1010C000184601F06FFD002387F820304FF480436D
:1010D0007B8402237B620023BB620223FB6200232A
:1010E0003B6300237B630023BB630023FB6300237C
:1010F0003B704FF480437B8002237B600023BB6006
:101100000223FB6000233B6100237B610023BB6162
:101110000023FB613A4607F120031146184601F00F
:10112000B1FC08220821002001F098FD01210020D7
:1011300001F079FD00BF6037BD4680BD0200180098
:10114000030018000400180005001800060018002D
:10115000080014000103183000080140000C014091
:1011600000100140001801400014014098B500AF84
:10117000C14B1B685B6898470821C04801F0D3FA4F
:10118000322001F0B1FF002000F07CF9052001F0D1
:10119000ABFFB94B1C6800F095F903462380D320C0
:1011A00000F070F9B44B1C6800F08CF90346238002
:1011B000B14B1C6800F086F903462380AE4B1C68D7
:1011C00000F080F903462380AB4B1C6800F07AF9ED
:1011D00003462380A84B1B681A88A74B1B68120282
:1011E00092B21A8000F06EF903461946A24B1B68B2
:1011F0001A88A14B1B680A4392B21A80CF2000F0D4
:1012000041F9002000F04EF9C12000F04BF93020E8
:1012100000F048F9ED2000F035F9642000F042F9C3
:10122000032000F03FF9122000F03CF9812000F08B
:1012300039F9E82000F026F9852000F033F9102074
:1012400000F030F97A2000F02DF9CB2000F01AF9E7
:10125000392000F027F92C2000F024F9002000F0BC
:1012600021F9342000F01EF9022000F01BF9F720CC
:1012700000F008F9202000F015F9EA2000F002F94A
:10128000002000F00FF9002000F00CF9C02000F061
:10129000F9F81B2000F006F9C12000F0F3F8012056
:1012A00000F000F9C52000F0EDF8302000F0FAF869
:1012B000302000F0F7F8C72000F0E4F8B72000F085
:1012C000F1F8362000F0DEF8482000F0EBF83A2084
:1012D00000F0D8F8552000F0E5F8B12000F0D2F881
:1012E000002000F0DFF81A2000F0DCF8B62000F053
:1012F000C9F80A2000F0D6F8A22000F0D3F8F220B6
:1013000000F0C0F8002000F0CDF8262000F0BAF878
:10131000012000F0C7F8E02000F0B4F80F2000F042
:10132000C1F82A2000F0BEF8282000F0BBF8082001
:1013300000F0B8F80E2000F0B5F8082000F0B2F880
:10134000542000F0AFF8A92000F0ACF8432000F0E2
:10135000A9F80A2000F0A6F80F2000F0A3F800205A
:1013600000F0A0F8002000F09DF8002000F09AF8AE
:10137000002000F097F8E12000F084F8002000F051
:1013800091F8152000F08EF8172000F08BF8072058
:1013900000F088F8112000F085F8062000F082F8AF
:1013A0002B2000F07FF8562000F07CF83C2000F065
:1013B00079F8052000F076F8102000F073F80F207F
:1013C00000F070F83F2000F06DF83F2000F06AF860
:1013D0000F2000F067F82B2000F054F8002000F0F8
:1013E00061F8002000F05EF8012000F05BF83F207B
:1013F00000F058F82A2000F045F8002000F052F8DC
:10140000002000F04FF8002000F04CF8EF2000F032
:1014100049F8112000F036F8782001F065FE292007
:1014200000F030F8362000F02DF8082000F03AF8EF
:101430002A2000F027F8002000F034F8002000F007
:1014400031F8002000F02EF8EF2000F02BF82B20D0
:1014500000F018F8002000F025F8002000F022F835
:10146000012000F01FF83F2000F01CF80121044883
:1014700001F059F900BF98BDEC04002000140140B0
:10148000000C014080B483B000AF0346FB80044AE7
:10149000FB88138000BF0C37BD465DF8047B7047A6
:1014A000FEFF016080B483B000AF0346FB80044AB6
:1014B000FB88138000BF0C37BD465DF8047B704786
:1014C0000000026080B483B000AF054B1B88FB8036
:1014D000FB8818460C37BD465DF8047B704700BF9B
:1014E0000000026090B583B000AF04460846114684
:1014F0001A462346FB800346BB800B467B8013467F
:101500003B802A20FFF7BEFFFB881B0A9BB21846D0
:10151000FFF7C8FFFB881846FFF7C4FF7B881B0A4C
:101520009BB21846FFF7BEFF7B881846FFF7BAFF4D
:101530002B20FFF7A7FFBB881B0A9BB21846FFF7BB
:10154000B1FFBB881846FFF7ADFF3B881B0A9BB273
:101550001846FFF7A7FF3B881846FFF7A3FF2C208C
:10156000FFF790FF00BF0C37BD4690BD80B582B03D
:1015700000AF0346FB80FB881846FFF793FF00BFD0
:101580000837BD4680BD000090B583B000AF03466C
:10159000FB800B46BB8013467B80084B1B68DC68D6
:1015A000BB88FA88B988F888A0477B881846FFF777
:1015B000DDFF00BF0C37BD4690BD00BFEC0400202E
:1015C00090B585B000AF0346FB800E4B1B68DC680E
:1015D0004FF4A073F02200210020A0470023FB60FD
:1015E00006E0FB881846FFF7C1FFFB680133FB608C
:1015F000FB68B3F5963FF4D300BF00BF1437BD4678
:1016000090BD00BFEC04002090B589B000AF044647
:10161000084611461A462346FB710346BB800B461B
:101620007B8013463B80BB88DBB2DB00FB757B888D
:10163000DBB2DB00BB75FB79DB002F4A13443B6157
:101640000023FB610023BB61FB7D98B2BB7D99B297
:10165000FB7D9BB207339AB2BB7D9BB207339BB233
:10166000FFF740FF0023BB613EE00023FB6135E054
:101670003A69BB6913441B781A46FB69013342FA85
:1016800003F3DBB203F00103FB73FB7B012B11D1EE
:10169000FB7D9AB2BB699BB2134498B2BB7D9AB2F0
:1016A000FB699BB213449BB24FF478421946FFF793
:1016B0006BFF10E0FB7D9AB2BB699BB2134498B2FA
:1016C000BB7D9AB2FB699BB213449BB24FF4FC62A0
:1016D0001946FFF759FFFB690133FB61FB69072BD3
:1016E000C6D9BB690133BB61BB69072BBDD900BF3C
:1016F00000BF2437BD4690BD0400002080B586B0F1
:1017000000AFF860084611461A4603467B810B4637
:101710003B811346FB800023FB823B89BB827B8994
:101720007B820023FB820DE0FB8AFA681344187861
:10173000B98A4B1CBB82FB887A8AFFF765FFFB8A5C
:101740000133FB82FB8AFA6813441B78002BEBD130
:1017500000BF00BF1837BD4680BD000090B589B0FE
:1017600000AF0446084611461A462346FB8003464E
:10177000BB800B467B8013463B80FB88194619488B
:1017800001F046FDFA8807F108031749184601F0F1
:10179000CDFD07F108031846FFF710F90346BB8398
:1017A000BB8B07F108021946104801F031FD0023F8
:1017B000FB830EE0FB8B20333B4413F8180C798835
:1017C0004B1C7B803B88BA88FFF71EFFFB8B0133E5
:1017D000FB83FA8BBB8B9A42ECD300BF00BF24374C
:1017E000BD4690BDB0460008C0460008C44600088B
:1017F00080B582B000AF78607B68144A934208D10C
:101800000121134800F0E1FA0021114800F0DDFA4F
:1018100018E07B680F4A934208D101210E4800F07E
:10182000D4FA00210C4800F0D0FA0BE07B680B4A98
:10183000934207D101210A4800F0C7FA0021084865
:1018400000F0C3FA00BF0837BD4680BD0024014048
:1018500009000C00002801400A000C00003C014077
:101860000F000C0080B483B000AF78600B46FB70B3
:10187000FB7803F00103D9B27A68936861F300033F
:10188000936000BF0C37BD465DF8047B70470000D5
:1018900080B483B000AF0346FB71074AFB7903F0C5
:1018A0000F03D9B2536861F31343536000BF0C3781
:1018B000BD465DF8047B70470024014080B483B0CE
:1018C00000AF78607B6800221A707B6800225A7033
:1018D0007B6800229A707B680122DA7000BF0C37A7
:1018E000BD465DF8047B704780B483B000AF78607C
:1018F00039603B681B7803F00103D9B27A685368FA
:1019000061F3082353603B685B7803F00103D9B2AD
:101910007A68936861F3410393603B689B7803F0B6
:101920000103D9B27A68936861F3CB2393603B6873
:10193000DB78013BDBB203F00F03D9B27A68D36ADC
:1019400061F31753D36200BF0C37BD465DF8047BCB
:10195000704780B483B000AF78600B46FB70FB78B3
:1019600003F00103D9B27A68936861F308239360A6
:1019700000BF0C37BD465DF8047B704780B483B070
:1019800000AF78607A68936843F00803936000BF03
:101990000C37BD465DF8047B704780B483B000AF60
:1019A00078607B689B68C3F3C003DBB2002B01D077
:1019B000012300E0002318460C37BD465DF8047B88
:1019C000704780B483B000AF78607A68936843F062
:1019D0000403936000BF0C37BD465DF8047B70477D
:1019E00080B483B000AF78607B689B68C3F38003EA
:1019F000DBB2002B01D0012300E0002318460C3796
:101A0000BD465DF8047B704780B485B000AF786058
:101A1000084611461A460346FB700B46BB70134638
:101A20007B70FB78092B1DD87B681B69FB60FA78FB
:101A300013465B001344072202FA03F3DB431A4602
:101A4000FB681340FB607978FA7813465B00134417
:101A500001FA03F31A46FB681343FB607B68FA68DC
:101A60001A6120E07B68DB68FB60FB78A3F10A0267
:101A700013465B001344072202FA03F3DB431A46C2
:101A8000FB681340FB607978FB78A3F10A021346E8
:101A90005B00134401FA03F31A46FB681343FB602F
:101AA0007B68FA68DA60BB780C2B21D97B68DB6A2B
:101AB000FB60BB78A3F10D0213469B0013441F2269
:101AC00002FA03F3DB431A46FB681340FB60F97824
:101AD000BB78A3F10D0213469B00134401FA03F3F4
:101AE0001A46FB681343FB607B68FA68DA6241E0E0
:101AF000BB78062B1FD97B681B6BFB60BB78DA1F9A
:101B000013469B0013441F2202FA03F3DB431A46D9
:101B1000FB681340FB60F978BB78DA1F13469B0023
:101B2000134401FA03F31A46FB681343FB607B6816
:101B3000FA681A631EE07B685B6BFB60BB785A1E19
:101B400013469B0013441F2202FA03F3DB431A4699
:101B5000FB681340FB60F978BB785A1E13469B0064
:101B6000134401FA03F31A46FB681343FB607B68D6
:101B7000FA685A6300BF1437BD465DF8047B7047AE
:101B800080B483B000AF78600B46FB701346BB7027
:101B9000FB78072B0ED97A68936843F00073936043
:101BA000FB7803F00703D9B27A68936861F3534373
:101BB00093600DE07A6893686FF359639360FB78E4
:101BC00003F00703D9B27A68936861F353439360D3
:101BD000BB7803F00103D9B27A68936861F31453B8
:101BE000936000BF0C37BD465DF8047B7047000072
:101BF00080B483B000AF0346FB71074AFB7903F062
:101C00000103D9B2936861F3D753936000BF0C37D7
:101C1000BD465DF8047B70470024014080B483B06A
:101C200000AF78600B46FB70FB7803F00103D9B27C
:101C30007A68936861F39653936000BF0C37BD4692
:101C40005DF8047B7047000080B400AF184A136849
:101C500043F00103136000BF154B1B68C3F340033F
:101C6000DBB2012BF8D1124A53686FF301035360C2
:101C700000BF0F4B5B68C3F38103DBB2002BF8D1CD
:101C80000B4B1B680A4A23F0867323F480331360DE
:101C9000074B00225A60064B00221A63044B4FF494
:101CA0001F029A6000BFBD465DF8047B704700BF0D
:101CB0000010024080B485B000AF78600023FB7351
:101CC0007B681B0C03F1804303F504331A687B68BF
:101CD00003F01F03012101FA03F31A407B6803F0AC
:101CE0001F03012101FA03F39A4202D00023FB7380
:101CF00001E00123FB73FB7B18461437BD465DF8FA
:101D0000047B704780B582B000AF00237B60002366
:101D1000FB7002E07B6801337B601120FFF7CAFF94
:101D20000346012B03D07B68B3F5405FF2D311204B
:101D3000FFF7C0FF0346012B02D00023FB7001E038
:101D40000123FB70FB7818460837BD4680BD80B480
:101D500083B000AF78600B46FB70FB78012B16D187
:101D60007B681B0C03F1804303F5043319687B681F
:101D700003F01F0301229A407B681B0C03F1804390
:101D800003F50433184641EA0203036017E07B6859
:101D90001B0C03F1804303F5043319687B6803F0DF
:101DA0001F03012202FA03F3DA437B681B0C03F1E1
:101DB000804303F50433184601EA0203036000BFC1
:101DC0000C37BD465DF8047B704780B483B000AF2C
:101DD00078600B46FB70FB78012B16D17B681B0CDF
:101DE00003F1804303F5043319687B6803F01F0394
:101DF00001229A407B681B0C03F1804303F50433F6
:101E0000184641EA0203036017E07B681B0C03F1EC
:101E1000804303F5043319687B6803F01F03012234
:101E200002FA03F3DA437B681B0C03F1804303F5EA
:101E30000433184601EA0203036000BF0C37BD46B5
:101E40005DF8047B7047000080B483B000AF0346A8
:101E50000A46FB711346BB71FB79042B3ED801A2E5
:101E600052F823F0791E00088D1E0008A11E0008FC
:101E7000B51E0008C91E00081C4ABB7903F0010307
:101E8000D9B2136861F30003136028E0174ABB79E5
:101E900003F00103D9B2136861F3104313601EE02D
:101EA000124ABB7903F00103D9B2136861F31863D6
:101EB000136014E00D4ABB7903F00103D9B2136A31
:101EC00061F3000313620AE0084ABB7903F00103DF
:101ED000D9B2536A61F30003536200E000BF00BF50
:101EE0000C37BD465DF8047B704700BF0010024010
:101EF00080B483B000AF0346FB71074AFB7903F05F
:101F00000F03D9B2536861F30713536000BF0C3756
:101F1000BD465DF8047B70470010024080B483B07A
:101F200000AF0346FB71074AFB7903F00703D9B200
:101F3000536861F30A23536000BF0C37BD465DF858
:101F4000047B70470010024080B483B000AF0346AA
:101F5000FB71074AFB7903F00703D9B2536861F3B9
:101F6000CD23536000BF0C37BD465DF8047B70473E
:101F70000010024080B483B000AF0346FB710D4AED
:101F8000FB7903F00303D9B2536861F38F335360D5
:101F9000FB799B08DBB2074A03F00103D9B253680F
:101FA00061F31C73536000BF0C37BD465DF8047BC2
:101FB000704700BF0010024080B483B000AF0346FA
:101FC000FB710B46BB7113467B71FB79002B0AD169
:101FD0001F4A53686FF3104353601D4A136B43F05D
:101FE0000073136312E01A4A536843F4803353605A
:101FF000FB79012B05D1164A53686FF351435360A7
:1020000004E0134A536843F400335360104ABB7929
:1020100003F00F03D9B2536861F395435360BB7962
:102020001B110B4A03F00303D9B2536861F35E73CB
:102030005360074A7B7903F00103D9B2536861F317
:10204000DF73536000BF0C37BD465DF8047B7047FB
:102050000010024080B483B000AF0346FB71074A12
:10206000FB7903F00303D9B2536861F301035360B2
:1020700000BF0C37BD465DF8047B7047001002407E
:1020800080B400AF044B5B68C3F38103DBB2184636
:10209000BD465DF8047B70470010024080B58AB0F1
:1020A00000AF786000233B6200237B620023FB616A
:1020B0000023BB6100237B6100233B61FFF7E0FF4E
:1020C0000346FB73FB7B022B20D0022B69DC002B29
:1020D00002D0012B16D064E05D4B5B6DC3F340234F
:1020E000DBB2002B0AD05A4B1B6BC3F34063DBB24D
:1020F000002B03D07B68574A1A6056E07B68564A2B
:102100001A6052E07B68544A1A604EE0504B5B689C
:10211000C3F30043DBB2BB614D4B5B68C3F3834346
:10212000DBB27B624A4B5B68C3F34173DBB2FB619A
:10213000FB69002B02D17B6A0F2B06D1FB691A01C8
:102140007B6A134401337B6202E07B6A02337B6269
:10215000BB69002B06D17B6A404A03FB02F27B6815
:102160001A6022E03A4B5B68C3F34043DBB2002BBA
:1021700010D0374B5B6DC3F30133DBB23B623B6A7C
:102180000233354AB2FBF3F37A6A03FB02F27B684F
:102190001A600AE07B6A304A03FB02F27B681A602D
:1021A00003E07B682C4A1A6000BF294B5B68C3F3CD
:1021B0000313DBB27B612A4A7B6913441B783B61C2
:1021C0007B681A683B69DA407B685A60204B5B6821
:1021D000C3F30223DBB27B61224A7B6913441B7881
:1021E0003B617B685A683B69DA407B68DA60184B70
:1021F0005B68C3F3C223DBB27B611B4A7B69134478
:102200001B783B617B685A683B69DA407B689A605F
:102210000F4B5B68C3F30073DBB27B617B699B0090
:102220000B4A5268C2F38132D2B213437B610F4A28
:102230007B6913441B783B617B689A683B69B2FBFE
:10224000F3F27B681A6100BF2837BD4680BD00BF2E
:1022500000100240006CDC0200127A0000093D0010
:10226000E8460008F846000800470008084700084C
:1022700080B483B000AF0346FB71FB79012B05D11D
:10228000084A536D43F03003536504E0054A536D2B
:102290006FF30513536500BF0C37BD465DF8047B33
:1022A000704700BF0010024080B483B000AF034607
:1022B000FB71074AFB7903F00303D9B2536D61F355
:1022C0000D33536500BF0C37BD465DF8047B704786
:1022D0000010024080B485B000AF78600023FB603E
:1022E0007A6813686FF3000313607B6800221A603A
:1022F0007B6800225A607B6800229A607B6800221B
:10230000DA607B68FB60FA6840F2FF431340B3F584
:10231000816F11D2174B5B68FA68D2B2083A16493E
:10232000A1FB0212120992000F2101FA02F21146DA
:10233000104A0B43536017E0FA6840F2FF43134022
:10234000B3F5916F10D20D4B5B68FA68D2B2083AC0
:102350000949A1FB0212120992000F2101FA02F2AF
:102360001146064A0B43536000BF1437BD465DF863
:10237000047B704700000240CDCCCCCC000402406E
:1023800080B483B000AF78600B46FB70FB7803F03D
:102390000103D9B27A68136861F30003136000BFC8
:1023A0000C37BD465DF8047B7047000080B485B0F3
:1023B00000AF78600023FB730023BB607B68B3F140
:1023C000805F03D90B4B1B68BB6002E00A4B1B68A4
:1023D000BB60BA687B681340002B02D00123FB73FB
:1023E00001E00023FB73FB7B18461437BD465DF804
:1023F000047B7047000402400000024080B483B0B8
:1024000000AF78607B68B3F1805F05D9074A7B68CD
:1024100023F07043536002E0054A7B68536000BFBD
:102420000C37BD465DF8047B704700BF00040240D6
:102430000000024080B483B000AF78607B68002267
:102440001A607B6800225A607B6800221A817B68D0
:1024500000225A817B6800221A737B6800225A731B
:102460007B6800229A737B680022DA737B68002203
:102470001A747B6800225A7400BF0C37BD465DF8A1
:10248000047B704780B483B000AF786039607B68AC
:102490001A684BF6EF7313407A6813607B681B6809
:1024A0003A6812891A437B681A603B685B7C03F0C8
:1024B0000303D9B27A68136861F30D3313603B6884
:1024C000DB7B03F00303D9B27A68136861F38B23D3
:1024D00013603B689B7B03F00303D9B27A681368EF
:1024E00061F3092313603B685B7B03F00103D9B2FE
:1024F0007A68136861F3C71313603B681B7B03F0B2
:102500000103D9B27A68136861F3861313603B68DC
:102510001B7C03F00103D9B27A68136861F3451399
:1025200013603B685B891A467B685A603B681A688F
:102530007B689A603B685A687B68DA6000BF0C373A
:10254000BD465DF8047B704780B483B000AF78600F
:102550000B4B1A697B6813407A689A4206D1084A85
:102560007B685361064A7B68536102E0044A7B68DA
:10257000536100BF0C37BD465DF8047B704700BF58
:102580000004014080B485B000AF786039603B68DA
:102590001B683B813B689B79032B02D100237B8125
:1025A00030E03B689B79002B15D13B685B799BB28F
:1025B00003F00F037B813B685B79182B03D13A89C9
:1025C0007B681A611EE03B685B79282B1AD13A8937
:1025D0007B685A6116E03B689B791BB203F00803E5
:1025E0001AB23B681B791BB203F004031BB21343FE
:1025F0001AB23B68DB791BB203F003031BB213432F
:102600001BB27B813B89DBB2002B25D00023FB6012
:102610001FE03A89FB6842FA03F303F00103002B41
:1026200014D07B681B68FA6892000F2101FA02F24D
:10263000D2431A407B681A607B681B687989FA6804
:10264000920001FA02F21A437B681A60FB680133B8
:10265000FB60FB68072BDCD93B89FF2B28D93B8922
:102660001B0A3B810023FB601FE03A89FB6842FAAA
:1026700003F303F00103002B14D07B685B68FA6856
:1026800092000F2101FA02F2D2431A407B685A608D
:102690007B685B687989FA68920001FA02F21A4352
:1026A0007B685A60FB680133FB60FB68072BDCD951
:1026B00000BF1437BD465DF8047B704780B483B01B
:1026C00000AF78607B684FF6FF721A607B6800226B
:1026D0009A717B6800221A717B6804225A717B68A8
:1026E0000122DA7100BF0C37BD465DF8047B7047EC
:1026F00080B485B000AF78600B467B800023FB730D
:102700007A8879887B689B680B409A4202D00023C4
:10271000FB7301E00123FB73FB7B18461437BD46B6
:102720005DF8047B704780B483B000AF78600B46DF
:102730007B807A887B681A6100BF0C37BD465DF8E4
:10274000047B704780B487B000AF78600B46FB70A5
:102750007B681B0E03F1804303F580337B617B684C
:102760001B0CFB747B681B0ABB747B687B74BB7C93
:10277000C3F12002FB7CD31A4FF0FF3202FA03F3BD
:10278000FB60BB7CC3F12002FB7CD31AFA6822FAFF
:1027900003F3FB60FB7CFA6822FA03F3FB60FB7C2B
:1027A000FA6802FA03F3FB607B691968FB68DA4395
:1027B0007B690A401A60FB78002B09D07B691A6894
:1027C000797CFB7C01FA03F319467B690A431A60A2
:1027D00000BF1C37BD465DF8047B704780B485B0F0
:1027E00000AF78607B6803F00703FB600C4BDB688D
:1027F000BB60BA684FF6FF031340BB60FB681A0268
:10280000BB68134343F0BF6343F40033BB60044A27
:10281000BB68D36000BF1437BD465DF8047B7047CA
:1028200000ED00E080B582B000AF0346FB71FB799C
:102830001846FFF7D3FF00BF0837BD4680BD000034
:1028400080B483B000AF0346FB71FB79042B06D143
:10285000094B1B68084A43F00403136005E0064B6C
:102860001B68054A23F00403136000BF0C37BD4604
:102870005DF8047B704700BF10E000E080B58CB0CD
:1028800000AFF860B96011461A460B46FB7113465B
:10289000BB7107F114031846FFF700FCFB682A4AD6
:1028A00093420BD0FB68294A934207D0FB68284A21
:1028B000934203D0FB68274A934202D1FB69FB6233
:1028C00001E03B6AFB62FA6A13469B0013445B001B
:1028D0001A46BB68B2FBF3F3BB62B96A1E4BA3FB9B
:1028E0000123DA0813469B0013445B00CA1A042A2A
:1028F00006D8BB6A184AA2FB0323DB08BB6206E0CA
:10290000BB6A154AA2FB0323DB080133BB62BB6A27
:1029100099B2FA68936861F30F039360FB7903F04F
:102920000103D9B2FA68D36861F30C33D360BB7981
:1029300003F00303D9B2FA68136961F30D3313612D
:1029400000BF3037BD4680BD003801400060014007
:102950000064014000680140CDCCCCCC80B483B091
:1029600000AF78600B46FB70FB7803F00103D9B22F
:102970007A68D36861F34D33D36000BF0C37BD462E
:102980005DF8047B704780B483B000AF78600B467D
:10299000FB70FB7803F00103D9B27A68D36861F366
:1029A000C303D36000BF0C37BD465DF8047B70479E
:1029B00080B483B000AF78600B467B807B88C3F324
:1029C00008027B685A6000BF0C37BD465DF8047B87
:1029D000704780B483B000AF786039607B681A6854
:1029E0003B681340002B01D0012300E00023184670
:1029F0000C37BD465DF8047B704780B483B000AFF0
:102A000078607B685A787B689B781343DAB27B687E
:102A1000DB781343DBB21A467B689B8813437A68E2
:102A2000D28813437A68128913437A685289134310
:102A30007A68928913437A68D28913437A68128A32
:102A400013437A68528A1A437B685B694FF02040CF
:102A500079680978134340F831307B689B78082BFC
:102A60000AD14FF020427B681B78194652F831306A
:102A700043F0400342F8313000BF0C37BD465DF8EB
:102A8000047B704780B483B000AF786039607B68A6
:102A90005A687B689B681B011A437B68DB681B02D2
:102AA0001A437B681B691B041A437B685B691B051F
:102AB0001A437B689B691B061A437B68DB694FF0EE
:102AC0002040796809781A43CB0003445A607B6838
:102AD0005B88B3F5804F22D13B685A683B689B689E
:102AE0001B011A433B68DB681B021A433B681B69E6
:102AF0001B041A433B685B691B051A433B689B69CF
:102B00001B061A433B68DB694FF02040396809789F
:102B10001A4301F12003DB0003445A6009E04FF03F
:102B200020423B681B782033DB0013446FF0704277
:102B30005A6000BF0C37BD465DF8047B704780B417
:102B400083B000AF78607B6800221A707B68022235
:102B50005A707B6800229A707B680022DA707B686A
:102B600000229A807B680022DA807B6800221A812A
:102B70007B6800225A817B6800229A817B684FF42F
:102B80008052DA817B684FF400521A827B680022FF
:102B90005A827B6800225A6100BF0C37BD465DF83F
:102BA000047B704780B483B000AF786039607B6885
:102BB00000221A707B6800225A807B680F225A60BC
:102BC0007B680F229A607B68FF22DA607B680F22A5
:102BD0001A617B680F225A617B680F229A617B68B9
:102BE0000022DA613B6800221A703B6800225A809A
:102BF0003B680F225A603B680F229A603B68FF22B5
:102C0000DA603B680F221A613B680F225A613B6809
:102C10000F229A613B680022DA6100BF0C37BD4683
:102C20005DF8047B704780B483B000AF03460A466A
:102C3000FB711346BB714FF02041FA79BB7903F069
:102C40000103D8B251F8323060F3000341F832305A
:102C500000BF0C37BD465DF8047B704780B483B07D
:102C600000AF0346FB710B46BB8013467B804FF0E1
:102C70002041FB79DBB27A88D0B203F1880251F8A7
:102C8000223060F30F2341F822304FF02041FB79CE
:102C9000DBB2BA88D0B203F1880251F8223060F377
:102CA000070341F8223000BF0C37BD465DF8047BB6
:102CB00070470000002103E00B4B5B584350043188
:102CC0000A480B4B42189A42F6D30A4A02E0002304
:102CD00042F8043B084B9A42F9D300F011F800F097
:102CE0006BFAFEF719F87047C04700080000002093
:102CF000B0040020B00400200C050020FEE7000016
:102D000080B400AF1E4BD3F888301D4A43F47003E3
:102D1000C2F888301B4A136843F00103136000BFF8
:102D2000184B1B68C3F34003DBB2012BF8D1154AE3
:102D300053686FF30103536000BF124B5B68C3F32A
:102D40008103DBB2002BF8D10E4B1B680D4A23F038
:102D5000867323F4803313600A4B00225A60094BB8
:102D600000221A63074B4FF41F029A60044B4FF086
:102D700000629A6000BFBD465DF8047B704700BFEB
:102D800000ED00E00010024080B588B000AF0023E5
:102D9000BB610023FB6100237B6100233B610023B7
:102DA000FB600023BB60FFF76BF90346FB71FB7907
:102DB000022B20D0022B69DC002B02D0012B16D075
:102DC00064E03F4B5B6DC3F34023DBB2002B0AD0C2
:102DD0003B4B1B6BC3F34063DBB2002B03D0394B7F
:102DE000394A1A6056E0374B384A1A6052E0354B80
:102DF000364A1A604EE0324B5B68C3F30043DBB2E5
:102E00003B612F4B5B68C3F38343DBB2FB612C4B0D
:102E10005B68C3F34173DBB27B617B69002B02D13A
:102E2000FB690F2B06D17B691A01FB69134401333F
:102E3000FB6102E0FB690233FB613B69002B06D1B9
:102E4000FB69234A02FB03F31E4A136022E01C4B7A
:102E50005B68C3F34043DBB2002B10D0184B5B6DB3
:102E6000C3F30133DBB2BB61BB690233174AB2FB68
:102E7000F3F3FA6902FB03F3124A13600AE0FB69F9
:102E8000124A02FB03F30F4A136003E00D4B0F4A93
:102E90001A6000BF0A4B5B68C3F30313DBB2FB602D
:102EA0000C4AFB6813441B78BB60064B1A68BB686E
:102EB00022FA03F3034A136000BF2037BD4680BDEA
:102EC0000010024024040020006CDC0200127A0092
:102ED00000093D001047000880B586B000AFF860DB
:102EE000B9607A6000237B611BE000BF802111483C
:102EF000FFF76FFD0346002BF8D0BB685A1CBA6081
:102F00001B789BB219460B48FFF752FD00BF4021CA
:102F10000848FFF75EFD0346002BF8D07B690133BC
:102F20007B617A697B689A42DFDB7B6818461837D9
:102F3000BD4680BD0038014080B500AF00F0B4F858
:102F4000002000F035F8012000F032F8022000F0F7
:102F50002FF8002000F084F8012000F081F8022012
:102F600000F07EF800F002F800BF80BD80B582B0AE
:102F700000AF01210C48FEF7EAFE3B461846FFF77A
:102F80009DFB0123FB7100233B710023BB710123D7
:102F90003B6028237B713B4619460448FFF7F2FA51
:102FA00000BF0837BD4680BD020018000008014080
:102FB00080B584B000AF0346FB71FB79134A52F829
:102FC000233001211846FEF7C2FE07F10803184618
:102FD000FFF774FB0123FB7300233B731023BB73C8
:102FE000FB790B4A32F81330BB6004237B73FB7907
:102FF000084A52F8233007F1080211461846FFF735
:10300000C1FA00BF1037BD4680BD00BF3C040020A0
:10301000340400202804002080B483B000AF0346AD
:10302000FB71FB79022B10D8FB790B4A32F8133075
:10303000002B0BD0FB79084A32F81310FB79074AB2
:1030400052F823300A465A6100E000BF0C37BD46F3
:103050005DF8047B704700BF340400202804002082
:1030600080B483B000AF0346FB71FB79022B10D80C
:10307000FB790B4A32F81330002B0BD0FB79084A4E
:1030800032F81310FB79074A52F823300A461A61C6
:1030900000E000BF0C37BD465DF8047B704700BF01
:1030A000340400202804002080B500AF0420FFF77E
:1030B000C7FB094B1B68094AA2FB03239B0C084A68
:1030C0001360074B1B684FF47A7202FB03F3054A47
:1030D000136000BF80BD00BF2404002083DE1B43BB
:1030E000F0040020F404002080B485B000AF034653
:1030F000FB800023FB6035E0FB88322B0AD91E4B96
:103100001B681E4A322101FB03F35360FB88323BEC
:10311000FB8008E0FB88184A1268184902FB03F399
:103120004B600023FB80154B00229A60134B1B68F9
:10313000124A43F001031360104B1B68FB60FB68ED
:1031400003F00103002B04D0FB6803F48033002B51
:10315000F2D00A4B1B68094A23F001031360074BA6
:1031600000229A60FB88002BC6D100BF00BF143735
:10317000BD465DF8047B7047F404002010E000E0D9
:1031800080B584B000AF0346FB800023FB810AE0DA
:103190004FF4FA70FFF7A8FF4FF4FA70FFF7A4FF9F
:1031A000FB890133FB81FA89FB889A42F0D300BF87
:1031B00000BF1037BD4680BD70B50D4D0D4C641B72
:1031C000A4100026A64209D10B4D0C4C01F036FA92
:1031D000641BA4100026A64205D170BD55F8043B1F
:1031E00098470136EEE755F8043B98470136F2E779
:1031F000B8470008B8470008B8470008BC470008AF
:1032000002440346934200D1704703F8011BF9E7DB
:103210000FB40A4B13B51C6824B1A36913B9204637
:1032200000F07EFA05AB049AA1680193204600F0F5
:10323000E3FD02B0BDE8104004B070474C0400202C
:1032400070B50E46054618B183690BB900F068FAEF
:10325000AB69AC6813B9284600F062FA2C4B9C426B
:1032600020D16C68636EDB0705D4A389980502D46E
:10327000A06D00F0F3FAA38919071DD52369DBB10E
:10328000013EA36816F8011F013BA36039BB002B68
:1032900038DA22460A21284600F068F8013011D0B9
:1032A0000A2511E01B4B9C4201D1AC68DAE71A4BAE
:1032B0009C4208BFEC68D5E72146284600F0A8F8F4
:1032C0000028DDD04FF0FF35636EDA0705D4A389FF
:1032D0009B0502D4A06D00F0C2FA284670BD002BF9
:1032E00004DAA2699A4206DC0A2904D023685A1C2F
:1032F00022601970C5E72246284600F037F80130F1
:10330000BFD1DFE723680A255A1C22601D70DBE766
:10331000444700086447000824470008024B014660
:103320001868FFF78DBF00BF4C0400200EB400B535
:103330009CB01DAB029006906FF0004109480791C8
:103340000491094953F8042B05910068019302A9DF
:1033500000F028FC029B00221A701CB05DF804EB00
:1033600003B070474C0400200802FFFFF8B50E467A
:103370001446054618B183690BB900F0D1F9214B09
:103380009C422BD16C68A369A360A3891A072FD52F
:1033900023696BB323692068C01A6369F6B283425C
:1033A000374604DC2146284600F026F930BBA368E6
:1033B000013BA36023685A1C22601E7063690130C0
:1033C000834204D0A389DB0706D50A2E04D1214607
:1033D000284600F011F988B93846F8BD0A4B9C42DE
:1033E00001D1AC68CFE7094B9C4208BFEC68CAE743
:1033F0002146284600F00CF80028CBD04FF0FF37CC
:10340000EAE700BF44470008644700082447000873
:10341000324B70B51D6806460C4625B1AB6913B931
:10342000284600F07DF92E4B9C420FD16C68A38991
:10343000B4F90C2019072CD4DD0611D4092333600C
:1034400042F04003A3814FF0FF303EE0254B9C4209
:1034500001D1AC68EBE7244B9C4208BFEC68E6E77F
:10346000580712D5616B41B104F14403994202D06F
:10347000304600F05BFA00236363A38923F0240342
:10348000A3810023636023692360A38943F00803B9
:10349000A38123694BB9A38903F42073B3F5007F9B
:1034A00003D02146304600F001FAA089B4F90C207F
:1034B00010F001030AD00023A36063695B42A3619B
:1034C000236943B910F08000BAD170BD810758BF9D
:1034D0006369A360F4E70020F7E700BF4C04002015
:1034E0004447000864470008244700088A892DE9FA
:1034F000F041054610070C4658D44B68002B05DCFC
:103500000B6C002B02DC0020BDE8F081E66A002E87
:10351000F9D0002312F480522F682B6032D0606DF6
:10352000A3895A0705D56368C01A636B0BB1236C76
:10353000C01A00230246E66A216A2846B047431CA7
:10354000A38906D129681D292CD82A4ACA40D60742
:1035500028D500226260D9042269226004D5421C69
:1035600001D12B6803B96065616B2F600029CAD057
:1035700004F14403994202D0284600F0D7F9002014
:103580006063C1E7216A01232846B047411CC7D1C7
:103590002B68002BC4D01D2B01D0162B01D12F601E
:1035A000B1E7A38943F04003A381ADE70F69002F82
:1035B000A9D093070E6808BF4B690F6018BF00239E
:1035C000A6EB07088B60B8F1000F9CDD216AA66AA4
:1035D00043463A462846B047002806DCA38943F014
:1035E0004003A3814FF0FF308EE70744A8EB0008AB
:1035F000E9E700BF0100402038B50B6905460C46DD
:1036000013B90025284638BD18B183690BB900F0FD
:1036100087F8144B9C421BD16C68B4F90C30002B1A
:10362000EFD0626ED00704D4990502D4A06D00F0EB
:1036300015F928462146FFF759FF636EDA0705465C
:10364000E0D4A3899B05DDD4A06D00F008F9D9E78B
:10365000054B9C4201D1AC68DFE7044B9C4208BF9C
:10366000EC68DAE74447000864470008244700088C
:10367000002310B50446C0E90033C0E90433836079
:1036800081814366C2818361194608225C30FFF75D
:10369000B7FD054B6362054BA362054BE362054B27
:1036A0002462236310BD00BFA1430008C343000888
:1036B000FB4300081F440008014900F0AFB800BFF9
:1036C000F935000870B568224D1E55430E4605F1C8
:1036D000740100F097F9044640B10021C0E90016DA
:1036E0000C30A06005F16802FFF78AFD204670BD2E
:1036F000014800F0B3B800BFF9040020014800F011
:10370000AEB800BFF9040020014800F0A7B800BF20
:10371000FA040020014800F0A2B800BFFA0400201B
:1037200010B50446FFF7F0FFA3691BB1BDE81040D8
:10373000FFF7F0BFC4E912332365134B134A1B682C
:10374000A262A34204BF0123A361204600F020F837
:103750006060204600F01CF8A060204600F018F8D9
:103760000022E06004216068FFF782FFA068012268
:103770000921FFF77DFFE06802221221FFF778FFA1
:103780000123A361D2E700BF20470008B936000833
:10379000F8B50746FFF7ACFF1E4B1E68B36913B9B7
:1037A0003046FFF7BDFF4836D6E90134013B03D56B
:1037B00033680BB33668F7E7B4F90C50D5B9164B3C
:1037C000E36004F15800656600F047F8FFF796FFE4
:1037D000C4E90155C4E904552560A56108222946BC
:1037E00004F15C00FFF70CFDC4E90D55C4E9125566
:1037F0002046F8BD6834D9E704213846FFF762FF58
:10380000044630600028D5D1FFF778FF0C233B60D9
:10381000EEE700BF204700080100FFFF2DE9F84355
:103820000646884600F148040027D4E90195B9F11D
:10383000010905D52468002CF7D13846BDE8F88386
:10384000AB89012B07D9B5F90E30013303D02946D6
:103850003046C04707436835E9E77047704770470F
:1038600070B50E46B1F90E10002996B014461D46EB
:1038700008DAB6F90C3000222A601A0610D44FF488
:1038800080630EE06A4600F0F1FD0028F1DB019A4A
:1038900002F47042A2F500535A425A412A60EEE700
:1038A00040230020236016B070BD00008B8973B5E3
:1038B0009D0706460C4607D504F1470323602361A4
:1038C0000123636102B070BD01AB6A46FFF7C8FF18
:1038D00000990546304600F095F848B9B4F90C3027
:1038E0009A05EFD423F0030343F00203A381E3E737
:1038F0000D4BB362A389206043F08003A381009B3A
:103900006361019B20615BB1B4F90E10304600F099
:10391000BFFD28B1A38923F0030343F00103A38172
:10392000A0890543A581CDE7B936000837B5002940
:1039300044D051F8043C0190002BA1F10404B8BF1D
:10394000E41800F0EFFD1E4A0198136833B9636074
:10395000146003B0BDE8304000F0EABDA34208D9CE
:10396000256861198B4201BF19685B68491921609C
:10397000EDE71A465B680BB1A342FAD911685518F6
:10398000A5420BD1246821445418A3421160E0D110
:103990001C685B68536021441160DAE702D90C238C
:1039A0000360D6E7256861198B4204BF19685B681C
:1039B000636004BF491921605460CAE703B030BD99
:1039C000FC04002070B50E4E0C463168054611B956
:1039D00000F0D6FC30602146284600F0D1FC431CA4
:1039E0000AD0C41C24F00304A04207D0211A2846A0
:1039F00000F0C6FC013001D14FF0FF34204670BD0D
:103A0000000500202DE9F041CD1C25F00305083507
:103A10000C2D38BF0C25002D074601DBA94205D926
:103A20000C233B6000263046BDE8F0812E4E00F0AE
:103A300079FD33681C4634BB29463846FFF7C2FF80
:103A4000431C04464DD134682646002E40D12368DD
:103A50003146384604EB030800F092FC80453AD129
:103A6000216803356D1A25F0030508350C2D38BF84
:103A70000C2529463846FFF7A5FF01302BD02368D7
:103A80002B4423600EE02268521B1ED40B2A16D949
:103A90006119A342256018BF5960636808BF31608F
:103AA00062514B60384604F10B0600F041FD26F0F0
:103AB0000706231DF21AB6D09B1BA350B3E762681A
:103AC000A3420CBF32605A60ECE723466468B2E759
:103AD00034467668B9E70C233B60384600F028FD91
:103AE000A1E72560DEE700BFFC0400202DE9F047D8
:103AF0008E689E4282460C4690461F4638D88A8978
:103B000012F4906F32D025680969A5EB0109656947
:103B100005EB450505EBD57501334B446D109D4212
:103B200038BF1D46530531D52946FFF76BFF0646C2
:103B300050B90C23CAF80030A38943F04003A38195
:103B40004FF0FF30BDE8F08721694A4600F0C2FC23
:103B5000A38923F4906343F08003A3812661656108
:103B60004E44A5EB09052660A5603E46BE4200D93D
:103B70003E4620683246414600F0BAFCA3689B1BD3
:103B8000A3602368334423600020DBE72A4600F06B
:103B9000D5FC06460028E1D121695046FFF7C6FE54
:103BA000C7E700002DE9F04F98468B891B069DB0B2
:103BB00007460D4614460ED50B6963B94021FFF741
:103BC00021FF2860286120B90C233B604FF0FF30B3
:103BD000D1E040236B610023099320238DF8293025
:103BE000CDF80C803023DFF8A8818DF82A304FF013
:103BF000010923469A4613F8012B0AB1252AF9D167
:103C0000BAEB040B0BD05B46224629463846FFF739
:103C10006DFF013000F0AA80099A5A4409929AF87F
:103C20000030002B00F0A28000234FF0FF32CDE9DE
:103C300005230AF1010A049307938DF853301A9370
:103C40005446052214F8011B5148FCF7C1FE049AA2
:103C5000D8B9D00644BF20238DF85330110744BF94
:103C60002B238DF853309AF800302A2B15D0079A61
:103C7000544600204FF00A0C214611F8013B303B1E
:103C8000092B4ED9B0B1079214E0A0EB080309FA52
:103C900003F313430493A246D2E7039B191D1B6849
:103CA0000391002BBBBF5B4242F0020207930793D4
:103CB000B8BF049223782E2B0CD163782A2B35D1F0
:103CC000039B1A1D1B680392002BB8BF4FF0FF33F4
:103CD00002340593DFF8C8A0217803225046FCF790
:103CE00077FE40B14023A0EB0A0003FA00F0049BEA
:103CF00003430134049314F8011B26488DF828105F
:103D00000622FCF765FE002838D0234B1BBB039B23
:103D1000073323F0070308330393099B33440993C4
:103D200067E70CFB02320C460120A5E700230134B3
:103D3000059319464FF00A0C204610F8012B303A33
:103D4000092A03D9002BC5D00591C3E70CFB01213B
:103D500004460123F0E703AB00932A460F4B04A966
:103D60003846AFF30080421C0646D6D1AB895B06CD
:103D70003FF52CAF09981DB0BDE8F08F03AB009361
:103D80002A46064B04A9384600F0D4F9EBE700BFF9
:103D9000844700088E47000800000000ED3A000844
:103DA0008A4700089368013B002B10B4936008DA3F
:103DB0009469A34201DB0A2903D15DF8044BFFF7A4
:103DC000D5BA1368581C1060197008465DF8044B8A
:103DD0007047F8B506460F461446D518AC4201D1D7
:103DE000002007E014F8011B3A463046FFF7DAFFDF
:103DF000431CF3D1F8BD00002DE9F04F0D469DB0F6
:103E000014469846064618B183690BB9FFF788FC3B
:103E1000894B9D421BD175686B6ED90705D4AB8960
:103E20009A0502D4A86DFFF719FDAB891B0701D5D0
:103E30002B69EBB929463046FFF7EAFAC0B16B6E41
:103E4000DC070ED54FF0FF301DB0BDE8F08F7B4B87
:103E50009D4201D1B568DFE7794B9D4208BFF56807
:103E6000DAE7AB899805EDD4A86DFFF7F8FCE9E730
:103E70000023099320238DF82930CDF80C803023BE
:103E8000DFF8C0818DF82A304FF0010923469A46A9
:103E900013F8012B0AB1252AF9D1BAEB040B0BD088
:103EA0005B46224629463046FFF793FF013000F07B
:103EB000AA80099A5A4409929AF80030002B00F01F
:103EC000A28000234FF0FF32CDE905230AF1010A59
:103ED000049307938DF853301A935446052214F82F
:103EE000011B5848FCF774FD049AD8B9D10644BFA9
:103EF00020238DF85330130744BF2B238DF8533004
:103F00009AF800302A2B15D0079A544600204FF01B
:103F10000A0C214611F8013B303B092B4ED9B0B1B8
:103F2000079214E0A0EB080309FA03F31343049388
:103F3000A246D2E7039B191D1B680391002BBBBF50
:103F40005B4242F0020207930793B8BF04922378C2
:103F50002E2B0CD163782A2B35D1039B1A1D1B689D
:103F60000392002BB8BF4FF0FF3302340593DFF804
:103F7000E4A0217803225046FCF72AFD40B14023FB
:103F8000A0EB0A0003FA00F0049B034301340493FE
:103F900014F8011B2C488DF828100622FCF718FD98
:103FA00000283FD0294B1BBB039B073323F007039B
:103FB00008330393099B3B44099367E70CFB0232E8
:103FC0000C460120A5E700230134059319464FF064
:103FD0000A0C204610F8012B303A092A03D9002B8D
:103FE000C5D00591C3E70CFB012104460123F0E78E
:103FF00003AB00932A46164B04A93046AFF300806A
:104000000746781CD6D16B6ED90705D4AB899A05C3
:1040100002D4A86DFFF723FCAB895B063FF512AF16
:10402000099811E703AB00932A46094B04A93046CF
:1040300000F080F8E4E700BF444700086447000848
:1040400024470008844700088E470008000000004D
:10405000D33D00088A4700082DE9F04716469946E7
:104060008A680B69DDF820809342B8BF134633603D
:1040700091F8432007460C460AB1013333602368A8
:10408000990642BF336802333360256815F0060590
:1040900006D104F1190AE36832689B1AAB4226DCA8
:1040A00094F84320131E226818BF012392062BD4D4
:1040B00004F1430249463846C04701301ED0236808
:1040C000E568326803F00603042B08BFAD1AA36845
:1040D00022690CBF25EAE57500259342C4BF9B1AEF
:1040E000ED1800261A34B5421AD1002008E0012349
:1040F000524649463846C047013003D14FF0FF30A1
:10410000BDE8F0870135C6E7E1185A1C302081F878
:104110004300224494F8451082F843100233C7E765
:104120000123224649463846C0470130E6D00136D1
:10413000D9E700002DE9FF470F7E0C9D782F9146AF
:1041400080460C469A4601F1430207D8622F0AD8EE
:10415000002F00F0D880582F00F0A38004F1420512
:1041600084F842703AE0A7F16303152BF6D801A159
:1041700051F823F0CD410008E14100085D410008FD
:104180005D4100085D4100085D410008E141000813
:104190005D4100085D4100085D4100085D41000887
:1041A000ED42000811420008CF4200085D410008BE
:1041B0005D4100080F4300085D41000811420008FE
:1041C0005D4100085D410008D74200082B681A1DB8
:1041D0001B682A6004F1420584F842300123A3E001
:1041E00020682968060601F104030AD50E682B60D1
:1041F000002E03DA2D23764284F843305E480A23EA
:1042000019E00E682B6010F0400F18BF36B2EFE7D0
:104210002B682068191D2960010601D51E6802E07F
:104220004606FBD51E8854486F2F0CBF08230A236F
:10423000002184F843106568A560002DA2BF2168A5
:1042400021F0040121600EB9002D4DD01546B6FBBA
:10425000F3F103FB1167C75D05F8017D3746BB42EB
:104260000E46F4D9082B0BD12368DE0708D5236945
:1042700061689942DEBF302305F8013C05F1FF3546
:10428000521B2261CDF800A04B4603AA21464046AE
:10429000FFF7E2FE01304CD14FF0FF3004B0BDE833
:1042A000F087354881F845702968236851F8046B18
:1042B00029601D0614D5DF0744BF43F020032360A7
:1042C0001EB9236823F0200323601023B0E723687E
:1042D00043F0200323607823284884F84530E3E73F
:1042E000590648BFB6B2E6E71546BBE72B68266815
:1042F0006169181D286035061B6801D5196002E048
:104300007006FBD51980002323611546BAE72B6898
:104310001A1D2A601D68626800212846FCF758FBB8
:1043200008B1401B606063682361002384F8433058
:10433000A8E723692A4649464046D0470130ABD01A
:1043400023689B0713D4E068039B9842B8BF1846C4
:10435000A4E70123324649464046D04701309BD06E
:104360000135E36803995B1AAB42F2DCEBE7002509
:1043700004F11906F5E700BF95470008A6470008B5
:1043800038B5064D0023044608462B6000F048F976
:10439000431C02D12B6803B1236038BD0405002003
:1043A00010B50C46B1F90E1000F0F8F80028ABBFBC
:1043B000636DA3891B1823F48053ACBF6365A3818D
:1043C00010BD2DE9F0411F468B89DB0505460C46E3
:1043D000164605D5B1F90E100223002200F068F848
:1043E000A389B4F90E1023F48053A38132463B46CF
:1043F0002846BDE8F04100F017B810B50C46B1F9F9
:104400000E1000F055F8431CA38915BF606523F416
:10441000805343F48053A38118BFA38110BDB1F929
:104420000E1000F013B8000038B5074D04460846DA
:10443000114600222A601A46FEF74EFD431C02D1A7
:104440002B6803B1236038BD0405002038B5064D44
:104450000023044608462B6000F0BAF8431C02D142
:104460002B6803B1236038BD0405002038B5074D23
:1044700000230446084611462B6000F0B1F8431CA7
:1044800002D12B6803B1236038BD00BF04050020B2
:1044900038B5064D0023044608462B6000F0A8F806
:1044A000431C02D12B6803B1236038BD04050020F2
:1044B00038B5074D04460846114600222A601A46C0
:1044C00000F09EF8431C02D12B6803B1236038BD75
:1044D000040500200A44914200F1FF3300D17047E7
:1044E00010B511F8014B03F8014F9142F9D110BDFD
:1044F000884210B501EB020402D98442234607D852
:10450000431EA14208D011F8012B03F8012FF8E750
:10451000024401468A4200D110BD13F8014D02F851
:10452000014DF7E70148FFF799B900BFF8040020F3
:104530000148FFF794B900BFF80400202DE9F041CD
:10454000804614460E4621B9BDE8F0411146FFF7FA
:1045500059BA2AB9FFF7EAF925462846BDE8F0819D
:1045600000F02EF88442074602D8B4EB500F12D860
:1045700021464046FFF746FA05460028EDD0BC42EA
:104580002246314628BF3A46FFF7A4FF314640464F
:10459000FFF7CCF9E1E73546DFE7000038B5074D16
:1045A00004460846114600222A601A4600F030F8F8
:1045B000431C02D12B6803B1236038BD04050020E1
:1045C00051F8043C181F002BBCBF0B58C018704793
:1045D000024B58221A604FF0FF307047040500204C
:1045E000024B58221A604FF0FF307047040500203C
:1045F000024B58221A600020704700BF04050020BB
:10460000024B58221A604FF0FF307047040500201B
:10461000024B58221A604FF0FF307047040500200B
:10462000044A05491368002B08BF0B461844106064
:10463000184670470805002010050020F8B500BF97
:10464000F8BC08BC9E467047F8B500BFF8BC08BC73
:044650009E467047CB
:10465400696E7465726E616C5F74656D70657261AC
:10466400747572655F73656E736F72200D0A000056
:10467400696E7465726E616C5F74656D706572618C
:1046840074757265203D2025662064656720430D9E
:104694000A000000496E7465726E616C2054656D89
:1046A40070657261747572653A200000696E746594
:1046B400726765723A2025640000000025640000DA
:1046C4000D0A6C656E6774685F7374722026262009
:1046D400737472696E673A20256420262620257338
:1046E4000D0A0000000000000000000001020304A5
:1046F400060708090000000001020304000000008E
:104704000102030402040608020C08100000000061
:1047140000000000010203040607080950040020F9
:104724000000000000000000000000000000000085
:104734000000000000000000000000000000000075
:104744000000000000000000000000000000000065
:104754000000000000000000000000000000000055
:104764000000000000000000000000000000000045
:104774000000000000000000000000000000000035
:10478400232D302B2000686C4C0065666745464736
:1047940000303132333435363738394142434445B9
:1047A4004600303132333435363738396162636428
:0447B4006566000036
:0447B800B50100083F
:0447BC00910100085F
:1047C00001000000000000000000000000000000E8
:1047D00000000000000000000000000000000000D9
:1047E00000000000000000000000000000000000C9
:1047F00000000000000000000000000000000000B9
:1048000000000000000000000000000000000000A8
:104810000000000000000000000000000000000098
:104820000000000000000000000000000000000088
:104830000000000000000000000000000000000078
:104840000000000000000000000000000000000068
:104850000000000000000000000000000000000058
:104860000000000000000000000000000000000048
:104870000000000000000000000000000000000038
:104880000000000000000000000000000000000028
:104890000000000000000000000000000000000018
:1048A0000000000000000000000000000000000008
:1048B00000000000000000000000000000000000F8
:1048C0000000000000000000000000000000065F83
:1048D0005F0600000003030003030000147F7F1441
:1048E0007F7F1400242E6B6B3A120000466630184E
:1048F0000C666200307A4F5D377A48000407030087
:1049000000000000001C3E63410000000041633EC7
:104910001C000000082A3E1C1C3E2A0808083E3ED7
:10492000080800000080E060000000000808080897
:104930000808000000006060000000006030180CF3
:10494000060301003E7F71594D7F3E0040427F7F4C
:1049500040400000627359496F6600002263494974
:104960007F360000181C16537F7F5000276745458F
:104970007D3900003C7E4B4979300000030371799A
:104980000F070000367F49497F360000064F49690E
:104990003F1E000000006666000000000080E66622
:1049A00000000000081C3663410000002424242479
:1049B00024240000004163361C0800000203515902
:1049C0000F0600003E7F415D5D1F1E007C7E1313BD
:1049D0007E7C0000417F7F49497F36001C3E634159
:1049E00041632200417F7F41633E1C00417F7F493C
:1049F0005D416300417F7F491D0103001C3E63410F
:104A0000517372007F7F08087F7F000000417F7F25
:104A100041000000307040417F3F0100417F7F082E
:104A20001C776300417F7F41406070007F7F0E1CD8
:104A30000E7F7F007F7F060C187F7F001C3E634146
:104A4000633E1C00417F7F49090F06001E3F217114
:104A50007F5E0000417F7F09197F6600266F4D59F8
:104A60007332000003417F7F410300007F7F40409D
:104A70007F7F00001F3F60603F1F00007F7F301876
:104A8000307F7F0043673C183C674300074F7878CE
:104A90004F070000476371594D677300007F7F41E6
:104AA000410000000103060C183060000041417F06
:104AB0007F000000080C0603060C08008080808040
:104AC000808080800000030704000000207454549C
:104AD0003C784000417F3F4848783000387C44446F
:104AE0006C280000307848493F7F4000387C54549F
:104AF0005C180000487E7F490302000098BCA4A413
:104B0000F87C0400417F7F08047C780000447D7DB0
:104B10004000000060E08080FD7D0000417F7F104C
:104B2000386C440000417F7F400000007C7C1838D6
:104B30001C7C78007C7C04047C780000387C444435
:104B40007C38000084FCF8A4243C1800183C24A401
:104B5000F8FC8400447C784C041C1800485C5454D5
:104B60007424000000043E7F442400003C7C40404C
:104B70003C7C40001C3C60603C1C00003C7C70386D
:104B8000707C3C00446C3810386C44009CBCA0A085
:104B9000FC7C00004C64745C4C64000008083E77A8
:104BA0004141000000000077770000004141773E5E
:104BB00008080000020301030203010000000000D6
:104BC0000000000000000000910E00086D110008B8
:104BD000E514000889150008C1150008FD16000835
:104BE0005D17000800127A00001401400014014013
:104BF0000014014000200040008000000500180063
:104C000005001800050018000100000050040020F5
:104C100000000000444700086447000824470008DB
:104C20000000000000000000000000000000000084
:104C30000000000000000000000000000000000074
:104C40000000000000000000000000000000000064
:104C50000000000000000000000000000000000054
:104C60000000000000000000000000000000000044
:0400000508002CB50E
:00000001FF
